:020000040800F2
:10000000701700202902000897230008E51D00084A
:1000100095230008FD060008112C000800000000D0
:10002000000000000000000000000000C5240008DF
:10003000FF06000800000000F12300084925000821
:10004000430200084302000843020008430200087C
:10005000430200084302000843020008430200086C
:10006000430200084302000843020008430200085C
:10007000430200084302000843020008430200084C
:10008000430200084302000843020008430200083C
:10009000430200084302000843020008430200082C
:1000A000430200084302000843020008430200081C
:1000B0004302000843020008ED250008430200083F
:1000C00043020008430200084302000843020008FC
:1000D00043020008A92B0008C92B0008D52B0008F3
:1000E00043020008430200084302000843020008DC
:1000F00043020008430200084302000843020008CC
:1001000043020008430200084302000843020008BB
:1001100043020008430200084302000843020008AB
:10012000430200084302000843020008430200089B
:10013000430200084302000843020008430200088B
:10014000430200084302000843020008430200087B
:10015000430200084302000843020008430200086B
:10016000430200084302000843020008430200085B
:100170004302000843020008430200080000000098
:10018000430200084302000800F002F800F03CF8C7
:100190000AA090E8000C82448344AAF10107DA45E2
:1001A00001D100F031F8AFF2090EBAE80F0013F0F8
:1001B000010F18BFFB1A43F00103184794520000C7
:1001C000B4520000103A24BF78C878C1FAD8520758
:1001D00024BF30C830C144BF04680C6070470000C1
:1001E0000023002400250026103A28BF78C1FBD840
:1001F000520728BF30C148BF0B6070471FB505F0DC
:100200004EF81FBD10B510BD00F004FA1146FFF7FF
:10021000F5FF03F013FE00F022FA03B4FFF7F2FF3C
:1002200003BC00F025FA0000094880470948004750
:10023000FEE7FEE7FEE7FEE7FEE7FEE7FEE7FEE796
:10024000FEE7FEE704480549054A064B70470000F3
:10025000DD250008890100087011002070170020BA
:10026000701300207013002053EA020C00F0698024
:100270002DE9F04B4FF00006002B1FBFB3FA83F5BA
:1002800003FA05F424FA05F65E4012BF1643B2FAEB
:1002900082F502FA05F4C5F120051EBF22FA05FC1D
:1002A00044EA0C04203556EA044C4FEA144418BFC3
:1002B000641C4FF000084FF00009904271EB030CF2
:1002C00039D3002919BFB1FA81F701FA07F6B0FA5C
:1002D00080F700FA07F6C7F120071EBF20FA07FCD7
:1002E00046EA0C062037B6FBF4FCA7EB0507103FE7
:1002F00007F01F0BCBF120060CFA0BFB2CFA06F6CD
:1003000044BFB3460026202FA4BF5E464FF0000B2B
:100310005BEA060C08BF4FF0010B19EB0B09ABFBB6
:10032000027C48EB0608C01B06FB02CC0BFB03CC8F
:1003300071EB0C01C1E70B46024641464846BDE859
:10034000F08B13B54FF000004FF00001AFF30080C9
:10035000BDE81C40704710B5431C02E010F8011BBB
:1003600071B18107FAD14FF0013202C88C1A8C4367
:1003700014EAC211F9D0C01A0A0603D0C01E10BD7B
:10038000C01A10BD0A0401D0801E10BD0902FCD0A5
:10039000401E10BD40EA010370B59B072ED14FF0FF
:1003A0000136042A2AD308C810C99D1B9D43121F79
:1003B00015EAC61517D0D8B2E1B2401A50EA056165
:1003C00010D198B2A1B2401A50EA05410AD123F0E7
:1003D0007F4024F07F41401A50EA052102D1180ED7
:1003E000A0EB146070BDA342DBD018BA21BA8842DA
:1003F00001D9012070BD4FF0FF3070BD0AB9002057
:1004000070BD10F8013B11F8014B63B1A3420AD152
:10041000521E08D010F8013B11F8014B1BB1A3424A
:1004200001D1521EEDD1181B70BD032A40F230805D
:1004300010F0030C00F0158011F8013BBCF1020F25
:10044000624498BF11F801CB00F8013B38BF11F8A6
:10045000013BA2F1040298BF00F801CB38BF00F8BD
:10046000013B11F0030300F09B80083AC0F00880C4
:1004700051F8043B083A51F804CBA0E80810F5E71E
:10048000121D5CBF51F8043B40F8043BAFF3008001
:10049000D20724BF11F8013B11F801CB48BF11F876
:1004A000012B24BF00F8013B00F801CB48BF00F846
:1004B000012B70474FF0000200B513469446964654
:1004C000203922BFA0E80C50A0E80C50B1F1200167
:1004D000BFF4F7AF090728BFA0E80C5048BF0CC015
:1004E0005DF804EB890028BF40F8042B08BF704773
:1004F00048BF20F8022B11F0804F18BF00F8012BE5
:10050000704700004FF0013C50F8042B51F8043BB9
:100510009A4221D1A2EB0C03934313EACC1317D1D7
:1005200050F8042B51F8043B9A4215D1A2EB0C036E
:10053000934313EACC130BD150F8042B51F8043B2E
:100540009A4209D1A2EB0C03934313EACC13DBD0FC
:100550004FF00000704700BFD01A01BAB1FA81F124
:1005600001F0180122FA01F0CB40C1F12001DBB209
:10057000C0B2C01A2CFA01F3D11A914311EAC31187
:10058000E6D1704770477047704710B500F03AF8F1
:10059000006810BD10B5044600F034F8046010BDCA
:1005A00010B5203AC0F00B80B1E81850203AA0E80E
:1005B0001850B1E81850A0E81850BFF4F5AF5FEA42
:1005C000027C24BFB1E81850A0E8185044BF18C9F5
:1005D00018C0BDE810405FEA827C24BF51F8043B9C
:1005E00040F8043B08BF7047D20728BF31F8023BF0
:1005F00048BF11F8012B28BF20F8023B48BF00F884
:10060000012B7047004870471011002000487047C8
:10061000101100207546FFF7F9FFAE460500694648
:10062000534620F00700854618B020B5FFF70AFEB4
:10063000BDE820404FF000064FF000074FF00008E3
:100640004FF0000B21F00701AC46ACE8C009ACE864
:10065000C009ACE8C009ACE8C0098D46704710B5C8
:100660000446AFF300802046BDE81040FFF7D5BD3B
:1006700001491820ABBEFEE72600020070470000CB
:10068000184870EE600A184A90ED070A30EE200A0A
:1006900010EE101A80ED070A914203DD9FED130A58
:1006A00080ED070A10EE101A114A914203D99FED0E
:1006B000110A80ED070A1049D0ED071A91ED000AE2
:1006C00091ED011A20EE200A01EE210AD0ED061A62
:1006D00091ED021AC0ED060A70EEE11A01EE210A50
:1006E000704700008800002000401C4600401C4667
:1006F00000401CC600401CC624100020FEE77047C6
:1007000072B602484168491C4160FCE704000020C1
:100710002DE9F0410446876D00F06AF9064694F829
:1007200035000025022806D08020606584F834500A
:100730000120BDE8F0812068016821F01601016008
:100740002068416921F080014161206C08B9A06CEA
:1007500020B12068016821F008010160206801686B
:1007600021F0010101600CE000F042F9801B052836
:1007700007D920206065032084F8350084F83450C0
:10078000D7E720680068C007EED194F85C103F20DE
:100790008840B860012084F8350084F83450002087
:1007A000C7E790F83510022903D080214165012068
:1007B0007047052180F835100068016821F00101BB
:1007C000016000207047000070B5044600F010F989
:1007D0000546601C02D004480078044400F008F983
:1007E000401BA042FAD370BDF40000202DE9F84F61
:1007F000DFF8BCA10022012503264FF00F090AF102
:10080000040BAAF1040E00BF0B6805FA02F42340A2
:10081000A34270D10F7907F00307012F01D0022FF7
:1008200016D187684FEA420806FA08FC27EA0C0747
:10083000D1F80CC00CFA08FC4CEA070CC0F808C050
:100840004768A7430C79C4F3001494403C434460C8
:100850000C79E443A4070AD0C4684FEA420C06FAB4
:100860000CF7BC438F6807FA0CF72743C7600C7975
:1008700004F00304022C12D1D40800EB840CDCF841
:1008800020405707FF0E09FA07F824EA0804D1F8B8
:10089000108008FA07F848EA0408CCF820800468B9
:1008A0004FEA420C06FA0CF7BC430F7907F0030736
:1008B00007FA0CF7274307604C6814F4403F70D0E8
:1008C0003C4C276847F480472760246822F00307E0
:1008D00004F480440094384C07EB040CDCF808481E
:1008E00097074FEA177809FA08F7BC43334FB84225
:1008F00002D1002724E054E0314FB84201D1012752
:100900001EE0304FB84201D1022719E02E4FB84205
:1009100001D1032714E02D4FB84201D104270FE085
:100920002B4FB84201D105270AE02A4FB84201D126
:10093000062705E0284FB84201D1072700E0082725
:1009400007FA08F72743CCF80878DAF8004057464A
:10095000D1F804C09C435FEACC2C00D51C433C601A
:10096000DBF800405F46D1F804C09C435FEA8C2C62
:1009700000D51C433C60DEF800407746D1F804C047
:100980009C435FEA8C3C00D51C433C60084F083F09
:100990003C68D1F804C09C435FEACC3C00D51C43C2
:1009A0003C60521C102AFFF42FAFBDE8F88F000006
:1009B000083C014044380240003001400000024041
:1009C0000004024000080240000C024000100240F7
:1009D0000014024000180240001C02400069084058
:1009E00000D0012070470AB1816170470904FBE71C
:1009F0000148806870470000F400002002488168C8
:100A00000278114481607047F40000200B4810B553
:100A1000016841F400710160016841F48061016086
:100A2000016841F480710160032000F06FF80F202D
:100A300000F006F800F024F8002010BD003C024051
:100A400070B50D4D04464FF47A712878B1FBF0F083
:100A50000A490968B1FBF0F000F00CFB48B9102C12
:100A600007D200222146501E00F030F800206C60B2
:100A700070BD012070BD0000F400002000010020C6
:100A80000A4808B5016841F480410160006800F43B
:100A9000804000900548001F016841F080510160CE
:100AA000006800F08050009008BD0000443802400B
:100AB000002809DB00F01F0201219140400980005D
:100AC00000F1E020C0F8001170470000F0B40E4BB8
:100AD0001B680C46C3F30223C3F10705042D00D99C
:100AE0000425191D072901D2002300E0DB1E012681
:100AF00006FA05F1491E214099409E40761E164097
:100B00003143F0BC02F03DB90CED00E0064900F0C5
:100B1000070208684FF6FF03184040EA0220034A24
:100B200010430860704700000CED00E00000FA057B
:100B30002DE9F0470E46050065D0DFF81481D8F89E
:100B40000000F7B200F00700B04207D288F800704A
:100B5000D8F8000000F00700B04254D128683D4C9E
:100B6000810712D5400703D5206840F4E05020608B
:100B70002878000703D5206840F460402060206892
:100B8000A96820F0F000084320602878C0072DD025
:100B9000304968680839012812D0022813D0032888
:100BA00011D00968890700292DDA216821F0030195
:100BB00001432160FFF71CFF814641F2883A0EE0B5
:100BC00009688903EFE709688901ECE7FFF710FF7F
:100BD000A0EB0901514502D90320BDE8F087206848
:100BE000696800F00C00B0EB810FEFD1D8F800106D
:100BF000404601F00701B14207D90770006800F0D4
:100C00000700B04201D00120E7E72878400705D56A
:100C10002068E96820F4E050084320602878000745
:100C200006D52068296920F4604040EAC1002060B0
:100C300000F038F82168084AC1F30311515CC8403C
:100C40000649086006480068FFF7FAFE0020C4E77E
:100C5000003C024008380240A25300080001002076
:100C6000F80000200448054900680968044AC1F3F7
:100C70008221515CC84070470001002008380240C2
:100C8000B25300080448054900680968044AC1F3E2
:100C90004231515CC84070470001002008380240D2
:100CA000B2530008154810B5006810F00C02144843
:100CB00013D01449042A0FD0082A0ED10F4C241F38
:100CC0002268236802F03F025B0207D52068C0F368
:100CD0008810A0FB010106E0084610BD2168C1F3A1
:100CE0008811A1FB00010023FFF7BEFA2168C1F3C0
:100CF0000141491C4900B0FBF1F010BD0838024029
:100D00000024F40040787D012DE9F84F04006ED0F6
:100D10002078DFF84C93C007A9F104054AD009F107
:100D200004000168C1F38101012908D00068C0F303
:100D3000810002280AD1D9F80000400206D52868AF
:100D4000800337D560680028E1D033E06068B0F5F3
:100D5000803F10D0B0F5A02F286810D020F480304C
:100D60002860286820F4802028606068A8B1FFF718
:100D70003FFE06460DE0286840F48030F4E740F47A
:100D800080202860F7E700BFFFF732FE801B642851
:100D900073D828688003F7D50CE0FFF729FE0646D4
:100DA00005E000BFFFF724FE801B6428F0D8286808
:100DB0008003F7D42078DFF8AC8280074FF0000A78
:100DC0003ED5A748001D016811F00C0F08D000683F
:100DD000C0F3810002280BD1D9F80000400207D4EB
:100DE0002868800716D5E068012800D112E033E1B9
:100DF000E068B8B10120C8F80000FFF7F9FD064629
:100E000005E000BFFFF7F4FD801B0228C0D828686A
:100E10008007F7D52868216920F0F80040EAC10072
:100E200028600DE0C8F800A0FFF7E2FD064604E0E8
:100E3000FFF7DEFD801B02281FD828688007F7D443
:100E40002078000722D5864F87486169703771B1D5
:100E500001210160FFF7CCFD064604E0FFF7C8FD65
:100E6000801B022809D838688007F7D50EE0C0F843
:100E700000A0FFF7BDFD064605E082E0FFF7B8FDE4
:100E8000801B02287DD838688007F7D42078400777
:100E900068D5DFF8CCB100270BF13C0BDBF8000084
:100EA000C0000BD4DBF8001041F08051CBF80010EB
:100EB000DBF80000012700F0805000906B4E306896
:100EC000C00510D4306840F480703060FFF790FDAA
:100ED000009005E0FFF78CFD0099401A022850D8D9
:100EE0003068C005F6D55E4EA0686C3601280FD07C
:100EF0000528306810D020F001003060306820F004
:100F000004003060A068B8B1FFF772FD00900FE0F8
:100F1000306840F00100F4E740F004003060F7E78B
:100F2000FFF766FD0099411A41F28830814266D888
:100F300030688007F4D50EE0FFF75AFD009007E017
:100F4000FFF756FD0099411A41F28830814256D888
:100F500030688007F4D42FB1DBF8001021F0805105
:100F6000CBF80010A069C8B33D49091D0968C1F359
:100F7000810102294AD00228504607D0C8F86000F3
:100F800000E03CE0FFF734FD04463BE04746C8F88C
:100F90006000FFF72DFD064605E000BFFFF728FDC6
:100FA000801B02282BD828688001F7D4D4E90701D8
:100FB0000843A16A2E4A490802EB0141626A41EAEC
:100FC0008211084394F82C1040EA0161C9F800101E
:100FD00001203866FFF70CFD044606E03EE000BF46
:100FE000FFF706FD001B022809D828688001F7D505
:100FF00034E000BFFFF7FCFC001B022802D90320ED
:10100000BDE8F88F28688001F4D427E00128F7D0E4
:10101000D9F80000E26900F4800191421CD1226AF3
:1010200000F03F01914217D147F6C071626A01405A
:10103000B1EB821F10D1A26A4FF0FF3300F44031B0
:1010400003EB5202B1EB024F06D194F82C1000F0E2
:101050007060B0EB016F01D00120D1E70020CFE735
:101060000438024000004742800E474200700040B2
:101070000000FFFF10B5401EB0F1807F01D30120BA
:1010800010BD4FF0E02460610F21601701F079FE80
:101090000020A06107202061002010BD704770472C
:1010A00070B590F83C20012A32D0012480F83C40F1
:1010B000022280F83D2003685A689D6822F070067D
:1010C0000A6832435A60134B02689A4214D0B2F154
:1010D000804F11D0104B9A420ED0104B9A420BD039
:1010E0000F4B9A4208D00F4B9A4205D00E4B9A42B2
:1010F00002D00E4B9A4204D1496825F0800319436F
:10110000916080F83D40002180F83C10084670BD99
:10111000022070BD000001400004004000080040B3
:10112000000C004000040140004001400018004055
:1011300010B5040003D094F83D0010B107E0012081
:1011400010BD002084F83C00204600F01FF802206B
:1011500084F83D00211D206801F04EFA012084F83A
:10116000460084F83E0084F83F0084F8400084F88C
:10117000410084F8420084F8430084F8440084F875
:10118000450084F83D00002010BD000038B505463C
:1011900000681049104C88420FD1206840F00400CC
:1011A00020602068032200F00400009001211E202E
:1011B000FFF78CFC1E20FFF77BFC0849286888425B
:1011C00007D1206840F080002060206800F0800097
:1011D000009038BD0008004040380240001C00402C
:1011E00090F83D10012901D001207047022180F8BC
:1011F0003D100168CA6842F00102CA6000681149E6
:10120000884214D0B0F1804F11D00F4988420ED0DF
:101210000E4988420BD00E49884208D00D498842B9
:1012200005D00D49884202D00C49884204D181681A
:1012300001F00701062903D0016841F001010160B6
:1012400000207047000001400004004000080040FA
:10125000000C004000040140004001400018004024
:1012600070B5044690F83C000025012817D00126EF
:1012700084F83C60022084F83D002068826822F0F7
:10128000770222F47F4282600868502838D00DDC53
:1012900020284FD005DC90B3102811D14AE002205D
:1012A00070BD302846D040280AD13BE060282FD0BE
:1012B00070280DD0B0F5805F03D0B0F5005F12D07C
:1012C000012584F83D60002084F83C00284670BD6C
:1012D000CB68D1E90121206801F0FFF9206881681D
:1012E00041F0770109E0CB68D1E90121206801F0E4
:1012F000F4F92068816841F480418160E1E719E0F8
:10130000CA684968206801F0BDFA5021206806E0EB
:10131000CA684968206801F0C6FA6021206801F0B7
:10132000E6F9CEE7CA684968206801F0ABFA4021C7
:101330002068F4E7226801461046F0E7704770B570
:101340000446006801694FF00005C943890715D4B8
:10135000C168C943890711D4E91E016101202077C2
:10136000206880698007204602D0FFF7E7FF04E08D
:1013700000F0C2F8204600F073F925772068016973
:10138000C943490717D4C168C943490713D46FF04B
:1013900004010161022020772068806910F4407FF9
:1013A000204602D0FFF7CAFF04E000F0A5F820466F
:1013B00000F056F9257720680169C943090716D45A
:1013C000C168C943090712D46FF008010161042004
:1013D00020772068C0698007204602D0FFF7AEFF63
:1013E00004E000F089F8204600F03AF925772068FB
:1013F0000169C943C90617D4C168C943C90613D4D2
:101400006FF010010161082020772068C06910F496
:10141000407F204602D0FFF791FF04E000F06CF817
:10142000204600F01DF9257720680169C943C907E6
:1014300008D1C168C943C90704D1891E016120468A
:1014400000F074F920680169C943090609D4C1682C
:10145000C943090605D46FF0800101612046FFF7FA
:101460001DFE20680169C943490609D4C168C94302
:10147000490605D46FF040010161204600F08CF967
:1014800020680169C94389060BD4C168C94389062C
:1014900007D46FF0200101612046BDE87040FFF7DE
:1014A000FEBD70BD00B500680F4987B0884219D1F4
:1014B0000E480021026842F020020260006800F03D
:1014C000200005904FF4807000900220CDE90101CA
:1014D0000920CDE9031069460548FFF787F905495A
:1014E0001620086007B000BD001C004030380240E4
:1014F0000014024000000020704770B5044690F8C8
:101500003C0000260D4601280FD0012084F83C0045
:101510006AB1042A1DD0082A2FD00C2A3FD00126F8
:10152000002084F83C00304670BD022070BD206869
:1015300001F0E6F82068816941F0080181612068C6
:10154000816921F004018161206881692A69114360
:1015500011E0206801F004F92068816941F400611C
:1015600081612068816921F48061816120688169DD
:101570002A6941EA02218161D2E7206801F026F957
:101580002068C16941F00801C1612068C16921F08A
:101590000401C1612068C1692A69114311E0206812
:1015A00001F048F92068C16941F40061C161206817
:1015B000C16921F48061C1612068C1692A6941EA79
:1015C0000221C161ACE710B5040003D094F83D00DE
:1015D00010B107E0012010BD002084F83C00204637
:1015E00000F01EF8022084F83D00211D206801F063
:1015F00003F8012084F8460084F83E0084F83F0098
:1016000084F8400084F8410084F8420084F84300E4
:1016100084F8440084F8450084F83D00002010BDA3
:1016200008B502680C49B2F1804F07D10A6842F050
:1016300001020A600A6802F0010200920068074A8B
:10164000904207D1086840F080000860086800F008
:101650008000009008BD000040380240001C00409F
:101660007047000010B50446022249B104290ED08B
:10167000082913D094F84100012816D0012010BD8C
:1016800094F83E000128F9D184F83E200FE094F848
:101690003F000128F2D184F83F2008E094F8400090
:1016A0000128EBD184F8402001E084F84120012298
:1016B000206801F005F816492068164A884201D0D2
:1016C000904203D1436C43F4004343642068884252
:1016D00013D0B0F1804F10D00F4988420DD00F4980
:1016E00088420AD00E49884207D0904205D00D4961
:1016F000884202D00C49884204D1816801F0070178
:10170000062903D0016841F001010160002010BDED
:1017100000000140000401400004004000080040B7
:10172000000C0040004001400018004070B517490F
:10173000884229D1164800230168491C016042688B
:10174000521C4260B1F57A7F00D103600168032426
:1017500091FBF4F504FB151535B191FBF4F504FB91
:101760001511012907D00BE00A4890ED000A01206D
:1017700002F092FC04E0192A02DB436002F078FCDC
:10178000BDE8704002F008BA70BD000004010020FE
:101790001C000020E01000207047704770470000D8
:1017A000F8B5016804460868CA684B6910F00F0F65
:1017B0004FF0000559D003F0010602F4907737434B
:1017C00065D0C10705D0D10503D5216C41F00101D9
:1017D0002164410705D5D90703D0216C41F00201EE
:1017E0002164810705D5D90703D0216C41F004019C
:1017F0002164010707D502F02001314303D0216C99
:1018000041F008012164216C00293AD0800604D5FA
:10181000900602D5204601F087F820684069216CC7
:10182000C0F38010090700D460B3204601F055F8DA
:1018300020684069400621D52068143050E8001F18
:1018400021F0400140E80012002AF5D1A06BA8B1B8
:101850006C490165A06BFEF7A4FF002811D0A06BB6
:10186000016D01B0BDE8F040084783060FD593062F
:101870000DD52046BDE8F84001F056B82046FFF7E8
:101880008DFFF8BD2046FFF789FF2564F8BD266B64
:101890002023012E79D1C60677D5D60675D50868DE
:1018A000486800904869400640D5A16B08684068C8
:1018B0000004000CEAD0A28D8242E7D9E085C86915
:1018C000B0F5807F2DD020680C3050E8001F21F447
:1018D000807140E80012002AF5D12068143050E8E9
:1018E000001F21F0010140E80012002AF5D1206814
:1018F000143050E8001F21F0400140E80012002A97
:10190000F5D184F83E30256320680C3050E8001F84
:1019100021F0100140E80012002AF5D1A06BFEF77B
:10192000F7FEA08DE18D401A81B229E0A08DE18DF6
:10193000401A81B2E08D0028A8D00029A6D02068E6
:101940000C3050E8002F22F4907240E80026002E60
:10195000F5D12068143050E8002F22F0010240E851
:101960000026002EF5D184F83E30256320680C3027
:1019700050E8002F22F0100240E80023002BF5D1A0
:101980002046FFF70AFFF8BDFFE705062BD5150631
:1019900029D594F83D002128F5D1A068B0F5805FE5
:1019A00001D12069B0B1206A411C21622168007810
:1019B0004860E08C401E0004000CE084E3D1206805
:1019C000C16821F08001C1602068C16841F0400118
:1019D000C160D8E7206A0088C0F308004860206A28
:1019E000801C2062E5E74006CDD55006CBD5CA68FD
:1019F000204622F04002CA6084F83D3000F0F1F940
:101A0000C1E70000CB28000870B5040004D094F8AA
:101A10003D00002510B106E0012070BD84F83C5067
:101A2000204600F023F8242084F83D002068C16897
:101A300021F40051C160204600F0D6FF2068016902
:101A400021F4904101612068416921F02A0141613E
:101A50002068C16841F40051C1602564202084F8E9
:101A60003D0084F83E00002070BD000070B586B0D7
:101A7000044614216846FEF71DFD2A4E2268002107
:101A80002948022303240725B24222D1264A1432D0
:101A9000166846F010061660126802F010020592F1
:101AA000026842F001020260006802AA00F0010030
:101AB000059082E832006002CDE9000369461B48C8
:101AC000FEF794FE002211462520FEF7FFFF252099
:101AD00024E0174EB24223D1134A1032166846F45E
:101AE00000361660126802F400320592026842F075
:101AF00008020260006802AA00F00800059082E86F
:101B000032006020CDE9000369460A48FEF76EFE08
:101B1000022211462620FEF7D9FF2620FEF7C8FF35
:101B200006B070BD00100140303802400000024095
:101B300000440040000C024090F83E30202B0ED1B3
:101B400059B152B190F83C30012B08D0012380F8F4
:101B50003C300023036300F0CDBF0120704702201A
:101B60007047000070B500686249634C88422AD112
:101B700060884FF000050204C0F30D0118D404F191
:101B800001024304127804D50A2A0BD140F4004024
:101B90000CE00D2A08D0594B401C80B25A5460808A
:101BA000C72800D9658070BD40F48040608070BD5A
:101BB000524802F0B5F95148883800680168C943B5
:101BC0004906FBD4EEE74E498842F0D14DA14A4880
:101BD000FEF798FC42F2107500281CDD01224AA194
:101BE0004548FEF7D7FBB0B1012249A14248FEF7B4
:101BF000D1FB80B1012247A13F48FEF7CBFB50B19A
:101C0000012247A13C48FEF7C5FB20B13A490E220C
:101C10002B460C3121E03BA13748FEF773FC00282E
:101C200027DA012238A13448FEF7B4FB08B30122B9
:101C300037A13148FEF7AEFBD8B1012235A12E48BD
:101C4000FEF7A8FBA8B1012235A12B48FEF7A2FBA5
:101C500078B129490D222B461A312848443800F022
:101C600067F82648012224494438FFF765FF2248D7
:101C700030E025A12048FEF745FCD8B124A11E483C
:101C8000FEF740FCF0B123A11B48FEF73BFC012509
:101C900020B323A11848FEF735FC002887D1174848
:101CA000012215494438FFF747FF204903200870F7
:101CB000656070BD114801220F494438FFF73CFFB1
:101CC000082007E00D4801220B494438FFF734FF94
:101CD0006FF00700BDE8704002F05ABC07480122CF
:101CE00005494438FFF728FF082002F051FCA560A1
:101CF00070BD000000100140240000201C020020E4
:101D0000004400402D310000626C75650000000049
:101D1000726564007475726E5F6C656674000000B5
:101D20007369646577616C6B0000000088000020B7
:101D30002DE9F843044690F83D001F4616460D462F
:101D400020284CD1C5B1BEB194F83C00012846D042
:101D5000012084F83C004FF00008C4F840802120A6
:101D600084F83D00FEF744FEA6848146E684A06820
:101D7000B0F5805F03D004E00120BDE8F88320695E
:101D800028B12E465FF0000584F83C800EE0002666
:101D9000FAE78021204600F0CAFEA0B9AEB116F8DD
:101DA000010B21684860E08C401EE084E08C4B46CB
:101DB0004FF0000200970028EBD14FF04001204681
:101DC00000F0B5FE30B10320D7E735F8020BC0F3C1
:101DD0000800E6E7202084F83D000020CDE702203F
:101DE000CBE77047FEE70000044908B50A680243E4
:101DF0000A6009680140009108BD000030380240C7
:101E0000044908B50A6802430A6009680140009164
:101E100008BD000040380240F0B50A680F2692FA6B
:101E2000A2F2B2FA82F303248AE001279F4015EA66
:101E300007027DD04D68012D01D0022D1BD18D6888
:101E4000876892FAA2FCBCFA8CFC4FEA4C0C04FAAC
:101E50000CFC27EA0C0792FAA2FCBCFA8CFC4FEAB5
:101E60004C0C05FA0CF52F438760CD684768554345
:101E700097432F4347600F69D0F80CC092FAA2F540
:101E8000B5FA85F54FEA450E04FA0EF52CEA050C75
:101E900092FAA2F5B5FA85F56D00AF404CEA070C51
:101EA000C0F80CC04D68022D33D192FAA2F5B5FAF4
:101EB00085F5082D15D2D1F814C0056A92FAA2F75B
:101EC000B7FA87F7BF0006FA07F7BD4392FAA2F701
:101ED000B7FA87F7BF000CFA07FC45EA0C05056264
:101EE00017E0D1F814E0476A150A95FAA5FCBCFA88
:101EF0008CFC4FEA8C0C06FA0CFC95FAA5F5B5FAA9
:101F000085F5AD0027EA0C070EFA05FE47EA0E0735
:101F100047624D68076892FAA2FCBCFA8CFC4FEA53
:101F20004C0C04FA0CFE27EA0E0792FAA2F200E02B
:101F300005E0B2FA82F2520095402F4307605B1C25
:101F40000A681546DA407FF470AF0020F0BD10B586
:101F5000044600F079FA206000F04CFA606000F06E
:101F600057FAA060606800F061FAE06010BD000000
:101F70007FB50446C0680D460126C0F34030C0BBA3
:101F8000E9686868AA690843296911430843E16858
:101F900049F20C6291430843E060A868216921F48A
:101FA0004051014321616869616921F44071014335
:101FB00061616846FFF7CBFF0F48844208D00F48A5
:101FC00084420DD00E4884420AD00E48844201D18A
:101FD000039906E00C48844202D00C48844208D1A0
:101FE000029931B12B6823B100262046AA6900F07E
:101FF0000FF804B0304670BD0010014000440040AE
:102000000048004000140140004C004000500040D7
:102010002DE9F04106461920A1FB00011F460023CF
:1020200064243225B2F5004F27D0BB0FBA00FEF76B
:102030001BF90146B0FBF4F06FF01802504301EBBE
:10204000800005EB0010B0FBF4F000F0F002B1FBF3
:10205000F4F002EB0012B1FBF4F06FF018035843F8
:1020600001EB800005EB0010B0FBF4F000F00F0076
:10207000104480B2B060BDE8F081FA195B41FEF710
:10208000F3F80146B0FBF4F00201B1FBF4F06FF09D
:102090001803584301EB800005EBC000B0FBF4F0DF
:1020A00000F0F80002EB4002B1FBF4F0584301EB02
:1020B000800005EBC000B0FBF4F000F00700D7E7AC
:1020C00070B586B014216846FEF7F4F9294800245B
:1020D000016841F020010160016801F020010591D3
:1020E000016841F080010160016801F08001059103
:1020F000016841F001010160016801F001010591F1
:10210000016841F004010160016801F004010591DA
:10211000016841F002010160016801F002010591CE
:10212000016841F0080101600068134E00F00800EA
:102130000590002210213046FEF755FC10200125A5
:10214000CDE900050220CDE9020469463046FEF7DC
:102150004DFB28038DE8310069460848FEF746FB31
:10216000A8028DE8310069463046FEF73FFB06B015
:1021700070BD0000303802400008024000040240F8
:1021800010B58AB01C216846FEF794F91B481A491D
:10219000002401605321C0E9011444F61F61C0E925
:1021A000031480218161FEF7C3FF08B1FEF7A8FA8E
:1021B0001248FFF708FA08B1FEF7A2FA079407A938
:1021C0000E480894FEF76CFF08B1FEF799FA7020EC
:1021D000009041F28830CDE90104002269460748A9
:1021E0000494FFF78AF908B1FEF78AFA0348FFF76B
:1021F00059F90AB010BD0000001C00404C0100203D
:1022000010B586B0002418480094019402940394F9
:10221000049414490594016040F24731C0E9011467
:10222000C721C0E903148461FEF782FF08B1FEF7FD
:1022300067FA4FF48050009069460B48FFF710F89A
:1022400008B1FEF75DFA049404A907480594FEF767
:1022500027FF08B1FEF754FA0348FEF7C1FF06B0A6
:1022600010BD000000080040040100200F4810B518
:102270000D4901604FF4E1214160002181600C2291
:10228000C160C0E904128161C161FFF7BDFB18B1F3
:10229000BDE81040FEF734BABDE810400122044901
:1022A0000248FFF749BC00000010014094010020E3
:1022B000250000200C4810B50A4901604FF4E131B7
:1022C0004160002181600C22C160C0E9041281617B
:1022D000C161FFF799FB002803D0BDE81040FEF76D
:1022E0000FBA10BD00440040D801002010B58EB0D8
:1022F0001C216846FEF7DEF8182107A8FEF7DAF879
:102300004FF48020FFF77CFD0220FFF76DFD4FF4B6
:10231000406007900220089003200024CDE90904C2
:102320000720CDE90B4007A91748FFF775FD1748AF
:1023300000680122C0F30220114600F02DF801468A
:10234000272000F00EFD272000F0FEFC4FF4E120D6
:10235000CDE900040C200294CDE9034005940694D5
:102360000B4C69462046FFF703FE206920F490409D
:102370002061606920F02A006061E06840F400504C
:10238000E0600EB010BD0000000402400CED00E063
:1023900000480040FEE7FEE730B500F00703C3F158
:1023A0000704042C00D90424181D072801D2002397
:1023B00000E0DB1E012505FA04F0401E08409840AD
:1023C0009D406D1E1540284330BD000000290BD1F3
:1023D000F7EE000A9FED051A006850EE010ABCEE08
:1023E000E00A10EE101A41637047000000409C465E
:1023F0007047000004490968044A01F0F001090926
:10240000515CC8407047000008380240A2530008E1
:1024100004490968044A01F4E05102EB912109786A
:10242000C840704708380240B253000804490968A0
:10243000044A01F4604102EB51310978C840704709
:1024400008380240B25300080748006810F00C0139
:10245000064807D0042904D0082903D1082000F039
:1024600009B8034870470000083802400024F4000F
:1024700040787D0110B5104A04460020116811F41F
:1024800080030E4903D0B3F5800F00D10C49082C0E
:1024900011D1106800F03F00B1FBF0F01168C1F3FA
:1024A000881148431168012201F4403102EB1141C7
:1024B0004900B0FBF1F010BD043802400024F400E4
:1024C00040787D017047000019491A4AD1ED020A8F
:1024D00070EE800A10EE900AC1ED020A904203DB12
:1024E000DFED150AC1ED020A10EE900A134A904280
:1024F00003D3DFED130AC1ED020A1248D1ED021A2F
:10250000D0ED0D0A90ED0E1A60EE800A41EE210A20
:10251000D1ED011A90ED0F1A81ED010A70EE611AEA
:1025200041EE210AFDEEE00A10EE900A704700002D
:10253000D00000200000484200004842000048C28D
:10254000000048C224100020FEF758BA30B593B0FE
:1025500030216846FDF7AEFF14210CA8FDF7AAFF55
:102560001C480025016841F080510160006800F0BE
:10257000805011901848016841F480410160006862
:10258000022400F480401190012003901020049058
:10259000009406940820CDE90750A820CDE909044D
:1025A00004200B906846FEF7AFFB70B90CA90F2012
:1025B00081E831004FF4A0500F90E0021090052107
:1025C0000CA8FEF7B5FA002801D0FEF799F813B071
:1025D00030BD0000403802400070004002480168F1
:1025E00041F470010160704788ED00E00148FEF79A
:1025F000A6BE000004010020F0B50268254C264D5F
:10260000264E274F274B4FF0804CA04209D0604503
:1026100007D0A84205D0B04203D0B84201D09842BA
:1026200004D122F0700E4A6842EA0E02A0421BD08A
:10263000604519D0A84217D0B04215D0B84213D087
:10264000984211D0184DA8420ED0184DA8420BD078
:10265000174DA84208D0174DA84205D0164DA842E4
:1026600002D0164DA84203D122F44075CA682A430D
:102670004D6922F080022A4302608A68C2620A68B9
:102680008262A04201D0984201D10969016301210F
:102690004161F0BD0000014000040040000800401E
:1026A000000C004000040140004001400044014093
:1026B0000048014000180040001C0040002000407D
:1026C00010B501F01F030121046A99408C43046294
:1026D000016A9A401143016210BD10B5846842EA54
:1026E000032224F47F440A432243826010BD82689F
:1026F00022F070020A4342F0070181607047000037
:10270000F0B5026A22F001020262036A426884693B
:10271000124E24F073050C682C4323F002058B68DD
:102720002B430D4DA84201D0B04205D123F008073C
:10273000CB683B4323F00403A84201D0B04205D14B
:102740004D6922F4407215438A692A4342608461CC
:10275000496841630362F0BD00000140000401408C
:10276000F0B5026A22F010020262026A43688469CC
:102770000D6824F4E64444EA05248D6822F0200222
:1027800042EA05120F4D104EA84201D0B04206D1C8
:10279000CF6822F0800242EA071222F04002A842EB
:1027A00001D0B04207D14D6923F4406343EA850369
:1027B0008D6943EA850343608461496881630262ED
:1027C000F0BD00000000014000040140F0B5026AC5
:1027D00022F480720262026A4368C46922F40072C1
:1027E00024F073050C68124E2C438D6842EA0522D2
:1027F0000E4DA84201D0B04206D1CF6822F400624B
:1028000042EA072222F48062A84201D0B04207D1F6
:102810004D6923F4405343EA05138D6943EA0513D8
:102820004360C4614968C1630262F0BD00000140B9
:102830000004014030B5026A22F480520262046A48
:102840004268C3690D6823F4E64343EA05238D68B3
:1028500024F4005444EA0534084DA84202D0084D3F
:10286000A84204D14D6922F4804242EA85124260B6
:10287000C36149680164046230BD0000000001408A
:102880000004014010B5036A046A24F001040462E4
:10289000846924F0F00444EA021423F00A020A4393
:1028A0008461026210BD10B5036A23F01003036255
:1028B0008369046A23F4704343EA023224F0A003DC
:1028C00043EA01118261016210BD10B5806B0021E5
:1028D000C185C184FEF762FF10BD01680C3151E86B
:1028E000002F22F4907241E80023002BF5D10168FB
:1028F000143151E8002F22F0010241E80023002B9F
:10290000F5D1016B012909D101680C3151E8002F83
:1029100022F0100241E80023002BF5D1202180F89D
:102920003E1000210163704708B590F83E1022293F
:1029300001D0022008BD82684FF480539A4201D131
:10294000016921B1816A9A421BD04AB10AE002684A
:10295000816A5268C2F308020A80816A891C08E011
:10296000026972B10268526802F07F020A70816ADD
:10297000491C8162C18D491E0904090CC18503D01F
:1029800019E002685268F1E70168CA6822F0200283
:10299000CA600168CA6822F48072CA6001684A6924
:1029A00022F001024A61202180F83E10016B0129CA
:1029B00003D0FFF7D7F8002008BD002101630168AC
:1029C0000C3151E8002F22F0100241E80023002BC7
:1029D000F5D101680A68D20602D50A6849680091F3
:1029E000818DFEF7DAFEE6E770B5044600680169FE
:1029F000E26821F44051114301612169A068E26954
:102A000008436169114308432168CA6849F20C63AD
:102A10009A430243CA6020684169A26921F4407167
:102A20001143416131492068884202D030498842CF
:102A300002D1FEF727F901E0FEF714F9E26900235D
:102A4000192164253226B2F5004F626828D0A0FB18
:102A50000101930F9200FDF707FC0146B0FBF5F072
:102A60006FF01802504301EB800006EB0010B0FB42
:102A7000F5F000F0F002B1FBF5F002EB0012B1FB53
:102A8000F5F06FF01803584301EB800006EB0010DF
:102A9000B0FBF5F000F00F0021681044886070BDB5
:102AA000A0FB010192185B41FDF7DEFB0146B0FB84
:102AB000F5F00201B1FBF5F06FF01803584301EB9C
:102AC000800006EBC000B0FBF5F000F0F80002EB70
:102AD0004002B1FBF5F0584301EB800006EBC0006B
:102AE000B0FBF5F000F00700D6E700000010014051
:102AF0000014014081628285C28500210164222286
:102B000080F83E2080F83C10016921B10168CA6854
:102B100042F48072CA6001684A6942F001024A6167
:102B20000068C16841F02001C160002070472DE9B4
:102B3000F041984617460E460446069D27E0681C5D
:102B400025D02DB1FDF754FFA0EB0800A8421ED9F7
:102B500020680C3050E8001F21F4D07140E80012CA
:102B6000002AF5D12068143050E8001F21F001013F
:102B700040E80012002AF5D1202084F83D0084F8B6
:102B80003E00002084F83C000320BDE8F08120686E
:102B9000006836EA000004D00020B842CFD0002000
:102BA000F3E70120F9E7000010B50548FEF7F8FD4E
:102BB000012204490248FEF7BFFF0028F8D110BDEA
:102BC00094010020250000200148FEF7E9BD000027
:102BD000D801002038B50C480C4C4168491C4160B4
:102BE0002068C0F3401048B1E068C0F3401028B13D
:102BF00060680549C0B2087001F00CFC20680090C4
:102C00006068009038BD00004C0000200048004083
:102C1000FEE70000184830EE600A184AD0ED0A0AB4
:102C200070EE800A10EE901AC0ED0A0A914203DDA0
:102C3000DFED130AC0ED0A0A10EE901A114A914214
:102C400003D9DFED110AC0ED0A0A1049B2EE041AE9
:102C5000D1ED060A60EE800A80EE810AD1ED070A06
:102C600090ED0A1A60EE810A9FED091AC0EE811AF2
:102C700030EE210A70470000880000200000FA436F
:102C80000000FA430000FAC30000FAC32410002039
:102C900000007A441B4870EE600ADFED1B1A90EDCD
:102CA000080A1A4A30EE200A10EE101A30EE612A95
:102CB00080ED080A914272EE211AFDEEE11AC0ED94
:102CC000051A03DDB3EE0E0A80ED080A10EE101AA5
:102CD0000F4A914203D9BBEE0E0A80ED080A0D4956
:102CE00090ED082A91ED030AD1ED041A20EE200A96
:102CF00001EE820AD1ED051AC0ED090A01EE210AA2
:102D00007047000088000020000040420000F041B1
:102D10000000F0C12410002003B401984100009885
:102D200050EAC12018BF04204A0D18BF40F001002E
:102D300040F2FF72B2EB515F08BF40F00200012881
:102D400008BF052002B07047002809DB00F01F0211
:102D5000012191404009800000F1E020C0F80011FD
:102D600070470907090E002804DB00F1E02080F815
:102D70000014704700F00F0000F1E02080F8141DEF
:102D800070470907090E002804DB00F1E02080F8F5
:102D90000014704700F00F0000F1E02080F8141DCF
:102DA00070470000000000002DE9F04D2DED040BF0
:102DB0002DED0E8B96B0DDE92550279CDDF890A017
:102DC00025F0004624F00048BAF1000F14BF01219D
:102DD000002101EB4502FC4953184A1093422AD3C3
:102DE000002814BF0123002303EB44030B44F749DD
:102DF0008B4220D358EA00019FEDF59B76D0DFF897
:102E0000D8B35D4503D1BAF1000F05D188E0BAF11E
:102E1000000F08BF002100D0012101EB450111F591
:102E2000001F08D8002814BF0121002101EB440134
:102E300011F5001F0BD99DED261B9DED240B16B03F
:102E4000BDEC0E8B04B0BDE8F04D00F069BE00276C
:102E5000002DBCBFE149884521DAE1498845A8BF7A
:102E600002271CDAC3451ADCDE4901EB285114297C
:102E700008DDC1F1340220FA02F101FA02F28242C5
:102E80000DD108E058B9C1F1140228FA02F101FA93
:102E900002F2424503D101F00101C1F1020756EAF5
:102EA0000A0124D1002C22DA002D18BF022F01D0F4
:102EB000012F0AD00220FDF76DFB16B0BDEC0E8B82
:102EC00004B0BDE8F04D00F013BE0220FDF762FB38
:102ED00000F00EFE51EC100B01F0D4FB41EC100B96
:102EE00016B0BDEC0E8B04B0BDE8F08D18E09FED80
:102EF000BEAB9FEDBF8B002871D1B848804522D171
:102F000005F1804010F5801008BFBAF1000F07D01E
:102F1000B3450ADC002CA8BF9DED260BE0DA0DE0DE
:102F2000B0EE490AF0EE690ADAE7002C06DA9DED08
:102F3000260B51EC100B01F0A5FB6FE0AE48784476
:102F400090ED000BCCE7D8454DD1002C48DA2EB1DE
:102F500086423AD1BAF1000F42D126E0BAF1000F11
:102F600013D00220FDF716FB00F0F6FD8DED020BED
:102F70009DED240B8DED000B10EE900A039961F38B
:102F80001E0003909DED020BAAE78DED02AB9DEDB7
:102F9000240B1AEE901A10EE900A8DED000B61F3DF
:102FA0001E0003909DED020B9AE78DED028B9DEDC7
:102FB000240B18EE901A10EE900A8DED000B61F3C1
:102FC0001E0003909DED020B8AE709DA9DED240BAC
:102FD00051EC190B53EC102B01F04EFC1EE020E0DD
:102FE0009DED240B7CE786421BDAB4F1804F0DD0B7
:102FF000A4F10050B0F1FF5013D1002D11DB9DED75
:10300000240B51EC100B01F0FBFA07E09DED240BB3
:1030100053EC102B51EC100B00F0C2BC41EC100B28
:103020005EE79DED240B51EC100B00F05AFEBAF157
:10303000000FCDE90E0142D19FED710B46B3A6F111
:10304000E040B0F17F600CD05E4538D1002D00DA51
:10305000A7B3022F0CBF01204FF0FF3001F064FD39
:10306000DCE7002D01DD002C0DDA002D01DD002C48
:103070001FDB002D16DA002C14DB012F08BF9FED9B
:10308000620B3FF42DAFB0EE4A0AF0EE6A0A27E772
:10309000022F18BF002D0CD0012F0AD1002DFFF6F2
:1030A0001FAF06E0002DB8BF002C08DA012F3FF457
:1030B00017AFB0EE480AF0EE680A11E71BE00120F6
:1030C00000EBE57050EA070115D0791EB0EE498A91
:1030D000F0EE698A084308BF9FED4D8B4E480025EE
:1030E000804570DD4D494E48884514DDB0420DDB0A
:1030F000002C19DB2FE00120FDF74CFA16B0BDECD7
:103100000E8B04B0BDE8F04D00F016BDB34502DCF7
:10311000002C09DC1FE0864202DA002C1BDA03E0F7
:103120005E452BDD002C16DD0220FDF733FA00F0A2
:1031300013FD8DED020B53EC1A2B51EC180B01F023
:1031400047FDCDE900010399019861F31E0003904A
:103150009DED020BC4E60220FDF71CFA00F00CFD09
:1031600010EE901A18EE900A8DED020B8DED008B8B
:1031700061F31E0003909DED020BB1E69DED0E0B79
:1031800053EC192B51EC100B01F02EFF9FED260B89
:10319000CDE9080153EC102B9DED080B51EC100B01
:1031A00001F016FD9FED221B53EC112B01F044FEA4
:1031B0009DED081B53EC112B01F00AFD9FED1E1B2A
:1031C00053EC112B3CE08CE0FFFF1F00FFFF0F00D2
:1031D000000000000000F03F0000F03F0000F07F22
:1031E0000000404301FCFFFF000000000000F07FF2
:1031F00000000000000000000625000000000000A4
:103200000000000000000080000000000000F0FF4F
:10321000000000000000F0BF0000E0410000F043AB
:10322000FFFFEF3F00000000000000000000D03F63
:10323000555555555555D53F000000000000E03F5D
:1032400001F0FAFD9DED080B41EC1A0B53EC102B2D
:1032500051EC100B01F0BCFC53EC1A2B01F0B8FC44
:1032600041EC1A0B9FEDFE0B53EC102B9DED080B60
:1032700051EC100B01F0ACFC41EC1B0B9FEDFA0B79
:1032800051EC1A0B53EC102B01F0A2FC41EC1A0B81
:103290009FEDF70B53EC102B9DED080B51EC100B31
:1032A00001F096FC53EC1A2B01F09EFE41EC1A0B38
:1032B00051EC1B0B53EC1A2B01F022FA0690CDE9CE
:1032C00006519DED060B53EC1B2B51EC100B01F03E
:1032D0008BFE53EC1A2B01F0AFFD41EC100B00F00C
:1032E000A1B90020B6F5801F0EDA9FEDE30B53EC79
:1032F000102B9DED0E0B51EC100B01F069FCCDE98C
:103300000E016FF034000E4600EB2650A0F2FF379E
:10331000C6F31300DA4940F07F6646F04056884213
:10332000D8BF002408DDD7498142C8BF012403DC8F
:103330000024A6F580167F1CD348784400EBC40017
:103340000F9690ED00CB9DED0E0B53EC1C2B51EC2A
:10335000100B01F049FE9DED0E0B41EC1B0B53ECE5
:103360001C2B51EC100B01F0CBF941EC100B51EC84
:10337000190B53EC102B01F07FFA41EC1D0B51ECB3
:103380001B0B53EC1D2B01F023FC41EC1A0BBF4827
:103390008DED10AB7844109590ED000B4FF0005080
:1033A00040EA660000EB84408DED080B00F500203C
:1033B00009909DED080B53EC1C2B51EC100B01F008
:1033C00013FE9DED0E1B53EC112B01F035FD41EC6E
:1033D000100B53EC102B9DED100B51EC100B01F06A
:1033E000F7FB9DED080B41EC1C0B53EC102B9DEDF6
:1033F000100B51EC100B01F0EBFB53EC1B2B01F00D
:103400001BFD53EC1C2B01F0EFFD53EC1D2B01F0C9
:10341000DFFB41EC1C0B53EC1A2B51EC1A0B01F0A7
:10342000D7FB41EC1B0B9A480621B0EE4B0AF0EE9D
:103430006B0A784400F0E0FAB0EE401AF0EE601A41
:10344000B0EE41DAF0EE61DA53EC1B2B51EC1B0BC2
:1034500001F0BEFB53EC1D2B01F0BAFB9DED100BF0
:1034600041EC1B0B53EC1A2B51EC100B01F048F9FB
:1034700053EC1C2B01F0ACFB53EC1B2B01F040F97F
:103480009DED100B41EC1B0B53EC102B51EC100B72
:1034900001F09EFB41EC1D0B9FED7FEB53EC1E2BCF
:1034A00001F02EF953EC1B2B01F02AF90890CDE91D
:1034B00008519DED080B53EC1E2B51EC100B01F045
:1034C00093FD53EC1D2B01F08FFD53EC1B2B01F0F2
:1034D000B3FC9DED080B41EC1D0B53EC102B9DED47
:1034E000100B51EC100B01F073FB41EC1B0B53EC78
:1034F0001A2B51EC1D0B01F06BFB9DED080B41EC01
:103500001A0B53EC102B51EC1C0B01F061FB53EC2C
:103510001A2B01F0F5F841EC1A0B51EC1B0B53EC94
:103520001A2B01F0EDF80C90CDE90C519DED0C0B30
:1035300053EC1B2B51EC100B01F056FD53EC1A2BE6
:1035400001F07AFC41EC1B0B9FED550B53EC102B5B
:103550009DED0C0B51EC100B01F03AFB41EC1A0BFA
:103560009FED510B51EC1B0B53EC102B01F030FB7A
:1035700041EC1B0B9FED4E0B53EC102B9DED0C0BF8
:1035800051EC100B01F024FB53EC1B2B01F0B8F8AD
:1035900041EC100B4848784400EBC40090ED001B50
:1035A00051EC100B53EC112B01F0AAF841EC1B0B62
:1035B000384601F0B9FACDE9080153EC1B2B51EC68
:1035C0001A0B01F09DF841EC100B3C48784400EBDD
:1035D000C40090ED00CB51EC100B53EC1C2B01F010
:1035E0008FF89DED081B53EC112B01F089F8069024
:1035F000CDE906519DED080B53EC102B9DED060B0C
:1036000051EC100B01F0F0FC53EC1C2B01F0ECFC26
:1036100053EC1A2B01F0E8FC53EC1B2B01F00CFCD3
:1036200041EC100B9DED261B53EC102B8DED001B78
:1036300000959DED260B51EC100B01F0C9FA9DEDA4
:10364000000B41EC1A0B53EC102B9DED260B51ECAB
:10365000100B01F0C9FC9DED061B53EC112B2FE064
:10366000000000604715F73FFE822B654715F73FC6
:1036700044DF5DF80BAE543E000000000000404304
:103680008E9803007AB60B0082200000B020000064
:10369000BA1F000000000000000000000000084009
:1036A000000000E009C7EE3FFD033ADC09C7EE3F2A
:1036B000F5015B14E02F3EBE461E0000001E000018
:1036C00001F086FA53EC1A2B01F01AF89DED060B67
:1036D00041EC1A0B53EC102B9DED000B51EC100B31
:1036E00001F076FACDE90C019DED0C0B51EC1A0BB3
:1036F00053EC102B01F004F8CDE902010C46AA4965
:103700008C422FDB611A084318D19DED0C0B53EC52
:10371000102B9DED020B51EC100B01F065FC41EC00
:103720001B0B9FEDA30B51EC1A0B53EC102B00F06D
:10373000E7FF53EC1B2B01F049FB2DD20220FCF7D5
:1037400029FF00F009FA10EE901A18EE900A8DED9C
:10375000020B8DED008B61F31E0003909DED020BBB
:10376000FFF7BEBB944A24F00041914214D3934921
:10377000214408437FF4EFAC9DED0C0B53EC102B70
:103780009DED020B51EC100B01F02EFC53EC1A2BAB
:1037900001F01CFB7FF6DFAC24F000408849894A29
:1037A000002601EB205182422BDA481C4FF4801195
:1037B00021FA00F02044844AC0F30A517A44A1F26D
:1037C000FF3192ED000B814A8DED080BCA4020EAD3
:1037D0000202C0F3130040F48010C1F1140120FA7A
:1037E00001F60992002CB8BF76429DED080B53EC10
:1037F000102B9DED0C0B51EC100B01F0F5FBCDE9FE
:103800000C019DED0C0B51EC1A0B53EC102B00F03E
:1038100077FF9FED6F0B0890CDE9085153EC102B0B
:103820009DED080B51EC100B01F0D2F941EC1B0B94
:103830009FED690B53EC102B9DED080B51EC100B19
:1038400001F0C6F99DED0C0B41EC1C0B53EC102B59
:103850009DED080B51EC100B01F0C6FB53EC1A2B3D
:1038600001F0EAFA9FED5E1B53EC112B01F0B0F969
:1038700053EC1C2B00F044FF41EC1A0B51EC1B0BDA
:1038800053EC1A2B00F03CFFCDE902019DED020B39
:1038900053EC1B2B51EC100B01F0A6FB53EC1A2B35
:1038A00001F0CAFA9DED020B41EC1A0B53EC102B00
:1038B00051EC100B01F08CF9CDE908014A489DED5F
:1038C000080B0521784400F097F89DED081B51EC9A
:1038D000100B53EC112B01F07BF99DED021B53EC07
:1038E000112B01F0A9FACDE906019DED020B53EC75
:1038F0001A2B51EC100B01F06BF953EC1A2B00F062
:10390000FFFE9FED3B0B41EC1A0B53EC102B9DED92
:10391000060B51EC100B01F067FB9DED060B41EC23
:103920001B0B53EC102B9DED020B51EC100B01F017
:103930004FF953EC1B2B00F09FFF53EC1A2B01F0B7
:1039400053FB9DED021B53EC112B01F04DFB53EC8F
:10395000192B01F071FACDE9020101EB06500115B6
:103960000029C8BF039015DC9DED020B324651ECD7
:10397000100B01F0D0FCFFF7CFF9042808BF00F0CE
:10398000FBF832469DED020B51EC100B01F0C3FC2D
:10399000CDE902019DED020B51EC180B53EC102BFD
:1039A00001F016F9FFF73ABB00009040000000005C
:1039B000FE822B654715973C00CC904000346F3F4A
:1039C00001FCFFFF0000E03F881C0000FFFF0F002C
:1039D00000000000432EE63F396CA80C615C20BE5D
:1039E000EF39FAFE422EE63F581B000000000000AF
:1039F000000000000000004070B504462DED028B71
:103A00004D1E00EBC500B0EE408AF0EE608A90EDEE
:103A1000000B35F0060017D053EC182B51EC100BAF
:103A200001F0D6F841EC100B6D1E04EBC50090EDD3
:103A3000001B51EC100B53EC112B00F061FE41EC1C
:103A4000100B35F00600E7D1022D36D0042D1CD026
:103A5000062D1CBFBDEC028B70BD53EC182B51EC36
:103A6000100B01F0B5F894ED0A1B53EC112B00F08C
:103A700047FE53EC182B01F0ABF894ED081B53EC08
:103A8000112B00F03DFE41EC100B53EC182B51ECC8
:103A9000100B01F09DF894ED061B53EC112B00F078
:103AA0002FFE53EC182B01F093F894ED040B53EC1C
:103AB000102B00F025FE41EC100B53EC182B51ECB1
:103AC000100B01F085F894ED021B53EC112B00F064
:103AD00017FE53EC182B01F07BF894ED001B53EC10
:103AE000112B00F00DFEBDEC028B41EC100B70BDF4
:103AF0009FED070B10B553EC102B9FED070B51EC0E
:103B0000100B00F0B9FE41EC100B10BD00000000DE
:103B10000000000000000000000000000000F03F76
:103B200010B553EC112B51EC100B00F0E9FD41ECFA
:103B3000100B10BD000000009FED050B10B553ECFD
:103B4000102B51EC100B00F097FE41EC100B10BD48
:103B500000000000000000009FED050B10B553ECC5
:103B6000102B51EC100B01F033F841EC100B10BD91
:103B700000000000000000709FED050B10B553EC35
:103B8000102B51EC100B01F023F841EC100B10BD81
:103B900000000000000000102DE9F0413F4C2DED29
:103BA000028B6068401C6060A06B401CA06300F04A
:103BB000C5F8E06B401CE06300F09AFC384E96EDCF
:103BC000030A00F023F984ED100A20789FED358A6E
:103BD000354D012801D002282CD1E06B002332287A
:103BE00008DB95ED080AF0EE480AFFF713F884EDBC
:103BF0000C0AE363A06B2D4F05280EDB97ED090A35
:103C0000D4ED0C0A94ED101A70EE200A96ED060A17
:103C1000FFF740F884ED0B0AA363D4ED0B0A94ED93
:103C2000100AFCF72DFD84ED0D0A85ED000A2078C1
:103C3000022824D0C0B203281DD1002000F0A8FC27
:103C400085ED008AB0EE480A002000F025FA85EDE7
:103C5000018AB0EE480A012000F01EFA14480068FC
:103C6000012808D1206942F21071401C206188426D
:103C700001DB02202070BDEC028BBDE8F08197EDE6
:103C8000090AD6ED060A30EE600AFEF71DFCA060B8
:103C900000F07EFCA068E060EDE7000088000020F6
:103CA000E402002000000000E010002024100020AA
:103CB00028000020F0B50388002541F221070CE020
:103CC0004C5D002683EA04235C001B0400D57C4085
:103CD000761C2346082EF7D36D1C9542F0D3038043
:103CE000F0BD82B0CDE9000121F0004001909DEDD2
:103CF000000B02B051EC100B7047000018B1012806
:103D000005D0002070474FF48061034802E04FF473
:103D100080510248FCF762BE0008024000040240E5
:103D200010B50349034800F0D7FB002010BD000088
:103D3000D941000808030020FFF7F2BF07480849EF
:103D4000026BCA61426B8A61826B0A628269CA60D5
:103D5000C2690A61006A486170470000140B0020C4
:103D6000E402002002480021017041707047000009
:103D7000E40000200149085C70470000E4000020D6
:103D80000021054B0A465A54491CC9B20229FAD3EC
:103D90000149486070470000E40000202DE9F0412F
:103DA000DFF8648000244646274606F108052046D1
:103DB000FFF7A4FF01280FD055F824004FF47A72C2
:103DC000401C45F82400D8F80410B2FBF1F1814200
:103DD00014D80220305511E0305D02280BD0D8F8FD
:103DE00004000A21B1FBF0F055F82410884202D8F3
:103DF0000120305500E0375545F82470641CE4B2CA
:103E0000022CD4D3BDE8F081E40000200A48F0EE93
:103E1000400A4178012903D100214170C0ED060A12
:103E200090ED060A90ED051A70EEC00A01EE200A28
:103E300080ED060A704700004C000020FCF7E6FD0C
:103E4000FEF784FBFEF73CF9FEF710FAFEF732FAB4
:103E5000FEF74CFA2B4800BF50E8001F41F020014C
:103E600040E80012002AF7D1FEF7CAF9FEF788F9F8
:103E700000F082FBFFF760FF00F03AFB00212248D0
:103E8000FDF7F0FB0120FFF77BFF204CFFF786FFDB
:103E9000FFF754FF0020FFF76DFF38B32078401C78
:103EA000C0B22070022821D1B0EE080A002000F034
:103EB000F3F842F21073102215491648FDF738FF47
:103EC000012215491348FDF737FE14480068012800
:103ED0000CD10F4908390868401C086041F288314C
:103EE000884203DB6FF0070000F052FB0120FFF770
:103EF00041FF08B103202070FFF734FF0120FCF7D9
:103F000063FCC3E70C4800404C01002088000020FF
:103F10000C000020D8010020240000202C000020EC
:103F200070B505462DED048B0F297DDD4C1E03E099
:103F3000285D2E2802D0641E002CF9DC002C7CD0D9
:103F40002E19F078303800F0EFFD9FED3F1B53EC59
:103F5000112B00F03DFE41EC190BB078303800F029
:103F6000E3FD9FED3B1B53EC112B00F031FE41ECC8
:103F7000180B7078303800F0D7FD9FED371B53ECED
:103F8000112B00F025FE53EC182B00F0B9FB53EC7D
:103F9000192B00F0B5FB00F081FB08EE100A00269B
:103FA00025E02D284CD0304600F0BEFD41EC110B31
:103FB0009FED2B0BFEF7F8FE285DB0EE409AF0EE79
:103FC000609A303800F0B0FD53EC192B00F000FE81
:103FD00041EC190B18EE100A01F0F0F853EC192B14
:103FE00000F08EFB00F05AFB08EE100A761C641EEF
:103FF000285D2028D5D11C48032280ED008A1B486B
:10400000816A491C91FBF2F302FB1311816200EB00
:10401000810181ED028A90ED020AD0ED030A30EEB3
:10402000200AD0ED040A00E007E030EE200AF0EEAE
:10403000080A80EE201A80ED081ABDEC048B70BDD2
:10404000B1EE488AD2E70000FCA9F1D24D62503FA0
:104050007B14AE47E17A843F9A9999999999B93F2F
:104060000000000000002440CC000020E0100020F0
:1040700010B506A42046FCF76EF9214682B2BDE8D1
:10408000104064230348FDF753BE00006620300D46
:104090000A000000940100203EB5E8B3002076211C
:1040A0008DF8001020218DF80110B0B310B131202F
:1040B0008DF802008DF80310B5EEC00A64212E229F
:1040C0000A20F1EE10FA38D2F1EE400A2D23FDEE6F
:1040D000E00A8DF8043010EE903A1BB293FBF1F435
:1040E00001FB143191FBF0F130318DF8051010EE29
:1040F000901AFAEE040A09B291FBF0F360EE200A7E
:1041000000FB13113031FDEEE00A8DF806108DF83A
:10411000072010EE901A01E00BE00CE009B291FBD1
:10412000F0F200FB121130318DF80810DFED270A94
:1041300032E00120B3E73020BAE7FDEEC00A2B23BE
:104140008DF8043010EE903A1BB293FBF1F401FBB2
:10415000143191FBF0F130318DF8051010EE901A0A
:10416000F2EE040A09B291FBF0F360EE200A00FBC4
:1041700013113031FDEEE00A8DF806108DF807209E
:1041800010EE901ADFED120A09B291FBF0F200FB7B
:10419000121130318DF8081020EE200A6423BDEE94
:1041A000C00A10EE101A09B291FBF0F200FB1211D6
:1041B00030318DF809100D218DF80A108DF80B00A3
:1041C0000C2269460348FDF7B3FD3EBD0000C8C29E
:1041D0000000C842940100202DE9F04F06462DED65
:1041E000028B83B0002000900190029096F808188E
:1041F000351D0446A52926D1DFF80882DFF808B26C
:10420000B2EE048A88F800004FF07F090BF14C0AE7
:1042100015E0285DB0284CD008DC62287DD09028BD
:1042200016D091287AD0A02808D11CE0C02864D0EC
:10423000D02874D0D12873D0F02872D0641CB6F87E
:104240000408A042E5DC03B0BDEC028BBDE8F08FB2
:1042500098F80010A41C41F0010188F8001069785A
:104260008BF80110EBE798F80010684641F0020166
:1042700088F800102919491C00F0F9F99DED000A91
:10428000F8EEC00A9FED610A80EE801A8BED031AEA
:10429000DDED010AF8EEE00A80EE801A8BED041ADB
:1042A000DDED020AF8EEE00A80EE801A8BED051AC9
:1042B00072E098F80010684641F0040188F8001098
:1042C0002919491C00F0D3F99DED000AB8EEC00A87
:1042D000C0EE080ACBED060A9DED010AB8EEC00A51
:1042E000C0EE080ACBED070A9DED020AB8EEC00A3F
:1042F000C0EE080ACBED080A4EE098F800106846B8
:1043000041F0080188F800102919491C00F0AFF9A4
:104310009DED000AF8EEC00A04E059E04FE016E017
:104320003CE04AE080EE880A8BED090A9DED010A27
:10433000B8EEC00AC0EE080ACBED0A0A9DED020AEB
:10434000B8EEC00AC0EE080ACBED0B0A24E098F8DC
:104350000010684641F0100188F800102919491C26
:1043600000F085F99DED000AF8EEC00A9FED280ADD
:1043700080EE801A8BED0D1ADDED010AF8EEE00AF1
:1043800080EE801A8BED0C1A9DED020AB8EEC00A81
:10439000C0EE080ACBED0E0AE41D50E798F80010B5
:1043A000194841F0200188F80010291910223C30EA
:1043B000491CFCF73AF8113441E7641D3FE788F8DF
:1043C00000904C2229461048FCF72FF84C3436E771
:1043D0000D4829680C380027816569680834C16573
:1043E0000AE000BF88F8009029194C220AF1030066
:1043F000FCF71BF84C347F1C9AF80210B942CCDD54
:10440000F0E700006C000020140B002000007A444C
:104410000000C84270B52F4C0025A21D911F2378C3
:104420004969072B53D2DFE803F004080F141D205D
:1044300028005A284CD1012004E081F80808A5285A
:1044400046D10220207043E0A1F8040890700320B8
:10445000F8E7B1F8043843EA0023A1F80438D07033
:104460000420EFE760800520ECE7628842EA002044
:1044700060800D60A5800620E4E70A680B1D561CCD
:104480000E60D0540868B0F5006F02D3257001208B
:1044900070BDB1F8042890421AD391F80808A528F5
:1044A00016D10C490422891D881EFFF703FC61699F
:1044B000084804C9001DFFF7FDFBA08861888842F9
:1044C00005D1E068401CE060D4E9041088472570FD
:1044D000002070BD7000002070B5044D04462961B5
:1044E00040F60C01FBF7E6FF6C6170BD7000002028
:1044F0001A489FED190ADFED1B0A80ED000A9FEDB7
:10450000180A80ED010AC0ED020AFAEE090AC0EDB0
:10451000030A80ED040AFAEE000AC0ED050ADFED99
:10452000120AC0ED060ADFED110AC0ED070ADFED41
:10453000100AC0ED080ADFED0F0AC0ED090A80ED90
:104540000B0A80ED0C0AF0EE080AC0ED0D0A80EDB2
:104550000E0A80ED0F0A70479A9929C02410002096
:1045600000000000AE4791BF3333733F9A99993EE4
:104570000AD7A33CB81E554010B500210348FDF7EB
:1045800071F8BDE81040002000F002B84C01002096
:1045900040F2064200F2A23040F23E31904201DD8C
:1045A000104602E0884200DA084600EE100A9FED4D
:1045B000041AF8EEC00A80EE810A00F003B8000089
:1045C00000401C4610EE100AF7EE000AB0F17E5FC4
:1045D00001DDB0EE600AB5EEC00AF1EE10FA01D2CC
:1045E0009FED050AB6EE001A002120EE010A0348ED
:1045F00030EEC00AFDF7EABE000000004C010020CA
:1046000000B52DED048B83B041EC190B00F020FCBC
:1046100041EC180B18EE100A18EE901A8DED008B75
:10462000002818BF0120084320F00040C0F17F603F
:1046300000F1E040C00F14D019EE101A19EE900AE4
:104640008DED009B002918BF0121084320F0004098
:10465000C0F17F6000F1E040C00F04BF0120FBF714
:1046600099FF51EC180B03B0BDEC048B00BDB1F900
:1046700000200260B1F902204260B1F904108160AB
:104680000020704781F00041704780F00040704783
:1046900021F00041704720F00040704721F00042B7
:1046A000A2F16052B2F5801F01F0004328BFD2F1A1
:1046B0007F6C0BD95FEA001C43EAC20242EB5070E8
:1046C00018BF704728BF20F001007047B2F5801F67
:1046D000BCBF184670474FEA410C1CF5001F02D2C0
:1046E000084600F0E1BD70B500F01CFB0000008939
:1046F000FFF7F6BF4FF00040A0F5800070470000C4
:1047000010B591EA030F48BF83F0004300F17484B1
:10471000841A71EB030C05D2121943EB0C03001B36
:1047200061EB0C01DFF824E14FEA1154A4EB135CB8
:104730001EEA430F18BF9EEA445F73D023EA0E03BC
:10474000DCF1200E21EA045143F4801332D322FA23
:104750000CFE10EB0E0023FA0CFE41EB0E01CCF127
:10476000200E03FA0EFE10EB0E0051F10001B1F520
:10477000801FCCF1200E32D201EB045112FA0EF25E
:10478000BDE8104058BF7047401C38BF5FEA420286
:1047900018BF7047002814BF20F0010041F100014C
:1047A0004FEA410313F5001F38BF7047A1F1C04124
:1047B00000F006BB012A43EB0302ACF1200CDCF154
:1047C0001F0E32BF4FF0000E23FA0CF310EB030064
:1047D00041EB0451B4EB115FD0D0A1EB045101F5D2
:1047E000801149085FEA300001EB04510ED350F10B
:1047F000000038BF12FA0EFE08D1BDE81040C9E72C
:10480000401C38BF5FEA4202CAD1C3E7BDE810408E
:104810004FEA410313F5001F38BF7047A1F1C041B3
:1048200000F0CEBA9EEA445F08D011EA5E0FBDE800
:10483000104004BF01F0004100207047BDE8104067
:1048400070B500F06FFA00BF64FBBE3E0000E0FFF1
:1048500002494FF0000000F02CBD00BF0000F87FBF
:10486000491058BFC1F140415B1058BFC3F14043EC
:104870008B42EFF3008070472DE9C04130B4DFF880
:10488000A0C23CEA111418BF3CEA131400F0EC80FB
:1048900081EA03051CEA111444EAD57418BF1CEA26
:1048A000131500F0C780A4EB05044FF0004545EA5E
:1048B000C12145EAC32341EA505143EA525304F16E
:1048C0007F74994204F500344FEAC0204FEAC222B7
:1048D00008BF904200F09C804FEA13650FF240162B
:1048E000765D4FEA134506FB05F7C7F1807706FBB7
:1048F00007F74FEAD737A7FB03687642C8F5803839
:10490000A7FB06CE38BFA8F1010807FB08E64FF069
:10491000000EA6FB028CE6FB03CEDCF1000CCEF110
:10492000004E38BFAEF1010EA6FB0C584FF0000749
:104930004FF00005E6FB0E87A1FB08C6A0FB07CEE3
:1049400016EB0E0645F10005E1FB076515F1E04E9B
:104950007EBFA4F580345FEA46066D4116F18007FC
:1049600045F100054FEA17274FEA066647EA056753
:10497000A6F1DE46B6F1805F4FEA15251FD938460D
:1049800024F0010C05EBC471BCF1FE6F01EB0C11BE
:1049900002D8F0BCBDE8008124425CBF01F5801E56
:1049A0009EEAC47F02D4F0BCBDE80081244238D422
:1049B000F0BCA1F1C041BDE8004100F001BA4FEAEE
:1049C000D22242EA43524FEAD323A7FB02864FEAA0
:1049D000D02040EA415007FB03661EEA0E0F4FEA63
:1049E000D12105FB026658BFA6EB0056B6EB005678
:1049F0004FEA520E4EEAC37E18EB0E0E56EB530EE4
:104A0000BDD518EB02085E417F1C55F10005B6E7E5
:104A10004FF480154FF000074FF000064FF00008EC
:104A2000ADE7F0BC4FF0000001F1C04101F00041E2
:104A3000BDE8008111EA0C1F0CEA131500D00CE050
:104A400013EA0C1F00F025804FF00000F0BC81EA53
:104A5000030101F00041BDE80081F0BCBDE8004168
:104A600081EA030100F0ACB9F0BCBDE8004170B5CB
:104A700000F058F9097EFC3E00F007B881EA030116
:104A80004FF0000001F00041704781EA030100F09F
:104A900097B9F0BCBDE800414FF0000021497047D4
:104AA000FFFDFBF9F7F5F4F2F0EEEDEBE9E8E6E4F3
:104AB000E3E1E0DEDDDBDAD8D7D5D4D3D1D0CFCD7A
:104AC000CCCBCAC8C7C6C5C4C2C1C0BFBEBDBCBBB3
:104AD000BAB9B8B7B6B5B4B3B2B1B0AFAEADACABAE
:104AE000AAA9A8A8A7A6A5A4A3A3A2A1A09F9F9E88
:104AF0009D9C9C9B9A99999897979695959493933A
:104B0000929191908F8F8E8E8D8C8C8B8B8A8989D0
:104B10008888878786858584848383828281818053
:104B20000000FF070000F87F10F0004248BF40423D
:104B3000B0FA80F310FA03F10AD0C3F11D0303F5B4
:104B400080634FEA415002EB035202EBD1217047E0
:104B50004FF000007047000051EA030C17D41CF519
:104B6000801F58BFBCF5801F00F10680994218BF16
:104B7000704708BF9042704707D711F5801F58BF94
:104B800013F5801F19D499427047894270471CF56C
:104B9000801F08D5BCF5801FF7D58B4218BF704722
:104BA00008BF824270474FF4001C1CEB410F38BF16
:104BB0001CEB430F01D28B42704770B500F0B2F886
:104BC000922449004FF000514FF08053FFF748BE48
:104BD000DFF848C170B51CEA111E1EBF1CEA131590
:104BE0009EEA0C0F95EA0C0F00F06F8081EA030437
:104BF00023EA4C134EEAD47E21EA4C1141F4801191
:104C000043F48013AE44A1FB024CA0FB0365AEF15C
:104C10007F7E361955EB0C05A1FB034C4CF10003CC
:104C2000A0FB021C16EB0C06654153F10003094280
:104C300018BF46F0010613F4007F0BD14FEA033191
:104C40004FEA0530340341EA155140EA16506FF03F
:104C500003020AE04FEAC3214FEAC520F40241EA09
:104C6000555140EA56506FF0020202EB2E4201EB22
:104C7000025585EACE710AD05FEA440C18BF24F0D1
:104C8000004450F1000041F1000120EAD47040F2EC
:104C9000FE7C624500D270BDA84214BF4FF0804434
:104CA0004FF04044002E08BF0024BEF1806FA8BF23
:104CB000A1F1C041BDE8704080F282804FF0000059
:104CC00001F1C04101F0004170479EEA0C0F0CEA6F
:104CD000131518BF95EA0C0F06D04FF0000081EABB
:104CE000030E0EF0004170BD00F01CF88900013E7B
:104CF00000F007B800F009B84FEA430C5FEA5C5CCB
:104D000008D081EA030100F05BB84FEA410C5FEA8A
:104D10005C5CF6D14FF00000014970470000FF07CE
:104D20000000F87F0EF1020E2EF0030E5EF8046B09
:104D3000364205D4012A43EB030515F5001F12D8AE
:104D4000012841EB010C1CF5001F0CD80ED14FEAD5
:104D5000D17C15F5001F0CEB4C0C0CF1020C08BFBC
:104D60004CEBD37C04E04FF0080C01E04FEAD37C1D
:104D70000CEB4C0526FA05F606F00706B6F1040C16
:104D800006D20EEB860CBDE870404CF0010C60477B
:104D9000DFE80CF0090B02024FF000414FF0000079
:104DA000A1F5002170BD19461046012851EB010400
:104DB00018BFD4F5001484BF002001F0004170BD7D
:104DC0000808A0F500114FEA3101704753EA010CC1
:104DD00017D41CF5801F58BFBCF5801F00F106805A
:104DE0008B4218BF704708BF8242704707D713F540
:104DF000801F58BF11F5801F19D48B4270479B420A
:104E000070471CF5801F08D5BCF5801FF7D5994267
:104E100018BF704708BF904270474FF4001C1CEB4E
:104E2000430F38BF1CEB410F01D2994270470FB4BA
:104E30000CBC03BCFFF7C1BE91EA030F10B581F0B3
:104E400000413FF565AC83F0004300F0D5B80000A9
:104E50002DE9F04101F5801CBCF5001FC0F2A980CE
:104E60004FEA115C21EA0C510CF1FD0C41F4801168
:104E70005FEA5C0C0CF5C07C01D34000494130A4D2
:104E8000890241EA905187028E0E0A0CA45D04FB50
:104E900004F602FB06F6C6F14046A4FB0662F60DD8
:104EA00046EA422606FB06F4A4FB01235242C3F164
:104EB000404338BF5B1EA6FB02420024E6FB0324EE
:104EC000D20B42EA4446A6FB0623A1FB02E2A3FB67
:104ED00007E4E3FB61426442C2F1404E38BFAEF1E9
:104EE000010EA6FB04234FF00002E6FB0E32A2FBEC
:104EF00003463400E2FB6264A1FB06E6A4FB07E87C
:104F0000E4FB61687642C8F1405838BFA8F1010857
:104F1000A2FB06E4A3FB08E5E2FB6854A1FB05E65F
:104F2000A7FB04E8E1FB648618F1200556F10006B2
:104F3000A809A8F11B08B10908F03F08B8F10A0F49
:104F400040EA86601CD901EB0C51BDE8F08100BF3E
:104F5000FCF5EEE8E2DDD8D3CFCBC7C3C0BDB9B610
:104F6000B4B1AEACA9A7A5A3A19F9D9B9A98969515
:104F70009392908F8D8C8B8988878685848382819C
:104F8000A0FB006800FB01F208EB4208B8EB8728A1
:104F900007D5341858EB0104D5D5401C51F1000158
:104FA000D1E7341A78EB0104CDD4401E71F1000131
:104FB000C9E75FEA4C0C5FEA9C5C0DD105D34FF06A
:104FC000000001F00041BDE8F081BDE8F04170B59E
:104FD000FFF7A8FE6DDBFFBEBDE8F0414FF000001B
:104FE000004970470000F87F10B591EA030F48BFF1
:104FF00083F000433FF58CAB841A71EB030C07D2AE
:1050000012198CF0004C43EB0C03001B61EB0C01FC
:10501000DFF8A4E14FEA1154A4EB135C1EEA430F3E
:1050200018BF9EEA445F00F0B08023EA6E0352424C
:1050300021EA0451C3EB6E0338BF5B1EDCF1200E86
:1050400025D322FA0CFE10EB0E0043FA0CFE41EBC6
:105050000E01CCF1200E03FA0EFE10EB0E0051F102
:105060000001CCF1200E29D412FA0EF201EB04510A
:10507000BDE8104058BF7047401C1CBFB2F1004F44
:10508000704700280CBF491C20F00100704712EB4C
:10509000020E43EB030218BF4FF0010E4EEA42022C
:1050A000ACF1200CDCF11E0E54D943FA0CFE10EBCF
:1050B0000E0051F1FF31CCF11E0ED5D50EF1010ECF
:1050C00012FA0EFE404141EB010101EB445C5FEA44
:1050D0005C5C10D910EBDE7001EB045138BFBEF1FF
:1050E000004FBDE8104018BF704700280CBF491C96
:1050F00020F00100704730D24FEAD42C11F5001196
:1051000024F400641BD0B1FA81F20B3AA41AA41E55
:10511000D2F12003914030FA03F31943904001EBA0
:10512000CC71002C01EB0451BDE81040A8BF7047C2
:1051300001F1C0414FF0000001F000417047B0FAAA
:1051400080F310FA03F100D110BDE41A173C4805B2
:10515000C90AE4E701EB045110BD491001EB045109
:10516000BDE810404FEA300002E04FF00001704708
:105170004A0008BF0042F8D0B2F5001F28BF7047B0
:1051800001F000414FF0000070479EEA445F07D0F5
:1051900011EA5E0FBDE8104004BF002100207047F7
:1051A000BDE8104070B5FFF7BDFD00BF40DFF63E23
:1051B00083F00041104670470000E0FF43004FEAD3
:1051C000D30C4FEA3C0C43401FBF40070CF1605129
:1051D00013F0FE4F70471CF0006F03D100200CF05D
:1051E000004170470CF0004343EA507010B540EAAC
:1051F000CC0000F00EF800BF000000924FEA000162
:10520000FFF7DEBD4FF000414FF00000A1F5002197
:1052100070470EF1020E2EF0030E5EF8044B24428E
:1052200004D44FEA4102B2F17F4F11D84FEA400354
:10523000B3F17F4F0CD80ED14FEAD07CB2F17F4F43
:105240000CEB4C0C0CF1020C08BF4CEBD17C04E0D5
:105250004FF0080C01E04FEAD17C0CEB4C0324FA30
:1052600003F404F00704B4F1040C06D20EEB840C32
:10527000BDE810404CF0010C6047DFE80CF0070877
:1052800002024FF00040A0F5800010BD0846420029
:1052900018BFD2F1807288BF00F0004010BD4FF0FF
:1052A0004070E1EE100A7047FF2141EAD050C0057E
:1052B00070470CF00F03092B08BF082000F059803D
:1052C0000A2B0BD0082B18BF704708BF1CF0400FEB
:1052D0000AD04FF000004FF0000170471CF0400F63
:1052E00018BF4FF0004070471CF0100F08D020F09E
:1052F000704300F07F4242EAD3014FEA43707047A7
:1053000000F0604021F07F4242EA000201F07F405D
:1053100040EA727070474FF0FF0C4CF4E06C1CEAEE
:1053200011531CBF9CEA030C9445C2BFDA4201EB47
:1053300002517047002B0DD0BCF1000F0FD0002A96
:1053400001F00041A4BF41F0E04141F07F614FF026
:105350000000704701F000414FF00000704750EA34
:1053600001334FF09B0C18BF4CF0806C7FF470AA97
:1053700070471CF4801F11D01CF4E02F03D06FEA9B
:10538000CC31490070474FF04050EFF3008222F0DB
:10539000704242EA000282F3008870474FF000003A
:1053A000704700000000000000000102030406072F
:1053B00008090000000001020304000000000000D2
:1053C000000000000000F03F000000000000F83F77
:1053D00000000000000000000000004003B8E23FB1
:1053E000000000000000000006D0CF43EBFD4C3E63
:1053F000033333333333E33FFFAB6FDBB66DDB3F58
:105400004D268F515555D53F01411DA96074D13F9F
:1054100065DBC9934A86CD3FEF4E454A287ECA3F99
:105420003E5555555555C53F93BDBE166CC166BF1B
:105430002CDE25AF6A56113FF16BD2C541BDBBBE14
:10544000D0A4BE726937663E000000000000000074
:10545000705400080000002004010000C40100088E
:1054600074550008040100206C160000E0010008DB
:1054700000000000000000000000000068656C6C87
:105480006F7720776F726C64210D0A0000000000B6
:10549000000000000000000000000000000000000C
:1054A0005475726E205269676874210D0A00547534
:1054B000726E204C656674210D0A00000001010027
:1054C00000000000000000400AD7233CD00F4940F4
:1054D0008FC2F53C0000000000000000000000004A
:1054E0000000000000005AA50000000000000000BD
:1054F00000000000000000000000000000000000AC
:10550000000000000000000000000000000000009B
:10551000000000000000000000000000000000008B
:10552000000000000000000000000000000000007B
:10553000000000000000000000000000000000006B
:10554000000000000000000000000000000000005B
:10555000000000000000000000000000000000004B
:10556000000000000100000010000000000000002A
:045570000024F4001F
:040000050800018965
:00000001FF
